01REMESSA01COBRANCA       02950010021657      HCOR CEARÁ                   004B. DO NORDESTE 010317000                                                                                                                                                                                                                                                                                                   000001
1                0295001002165700    00000000000000000242342340000001900000000000000000000000000000        401000000000031031700000000075000000000 01N010317000500000000000000000000000000000000000000000000000000000000000244444444444444UBER                                    RUA DAS ACACIAS 44 ARATURI                          CAUCAIA        CETESTE DE CNAB                           990000002
9                                                                                                                                                                                                                                                                                                                                                                                                         000003
